:020000040800F2
:1000000078080020E50E0008690500086B05000867
:100010006F05000873050008770500080000000060
:100020000000000000000000000000007B05000848
:100030007D050008000000007F050008810500081C
:10004000FF0E0008FF0E0008FF0E0008FF0E00085C
:10005000FF0E0008FF0E0008FF0E0008FF0E00084C
:10006000FF0E0008FF0E0008FF0E0008FF0E00083C
:10007000FF0E0008FF0E0008FF0E0008FF0E00082C
:10008000FF0E0008FF0E0008FF0E0008FF0E00081C
:10009000FF0E0008FF0E0008FF0E0008FF0E00080C
:1000A000FF0E0008FF0E0008FF0E0008FF0E0008FC
:1000B000FF0E0008FF0E0008FF0E0008FF0E0008EC
:1000C000FF0E0008FF0E0008FF0E0008FF0E0008DC
:1000D000FF0E00083D0B0008510C0008850D0008BC
:1000E000FF0E0008FF0E0008FF0E0008FF0E0008BC
:1000F000FF0E0008FF0E0008FF0E0008FF0E0008AC
:10010000FF0E0008FF0E0008FF0E0008FF0E00089B
:10011000FF0E0008FF0E0008FF0E0008FF0E00088B
:10012000FF0E0008FF0E0008FF0E0008FF0E00087B
:1001300000F002F800F03FF80AA090E8000C8244BA
:100140008344AAF10107DA4501D100F034F8AFF297
:10015000090EBAE80F0013F0010F18BFFB1A43F0A5
:1001600001031847C82D0000E82D0000103A24BFF5
:1001700078C878C1FAD8520724BF30C830C144BF0C
:1001800004680C607047000000230024002500264E
:10019000103A28BF78C1FBD8520728BF30C148BFEA
:1001A0000B607047642901F01987002070471FB564
:1001B0001FBD10B510BD01F0EBFF1146FFF7F7FFB3
:1001C00000F06CF902F009F803B4FFF7F2FF03BC8A
:1001D00000F054FC70B50446C949CA4AB2F900207F
:1001E00031F91210601A02F033FD0546C648016865
:1001F000284602F0E9FBC449086020B2C049C14A60
:10020000B2F9002021F81200BE480088401C00B25C
:10021000BC490880084600881E2804D100200880B8
:100220000120BA490880B948008858B9B548B0F9E2
:10023000000002F00DFD05462946B348006802F0B3
:1002400025FC70BDB249B048006802F01FFCF8E719
:100250002DE9F04F89B0AF480178012000F001FB93
:100260000890089802F00CFD804602F081FB0646DB
:100270004FF06632A84B02F097F9044601F0DCFF1C
:1002800006900020A54901F0B1FFCDE90401A44981
:10029000069802F009FDA349019002F0F7FBA2497C
:1002A000029002F001FD039002F062FB8246DDE95C
:1002B000042302F079F9804600229C4B02F074F985
:1002C000064600229A4B01F0E9FF044602F03EF98F
:1002D00080B207900798FFF77DFF044602F098FC74
:1002E00080B20790079809B0BDE8F08F2DE9FC4176
:1002F000054690480088A84237DD8E480078281AC5
:10030000C4B29626C82C00DD9627B42C02DDC82C7A
:1003100000DC9127A02C02DDB42C00DC8C278C2C77
:1003200002DDA02C00DC8727782C02DD8C2C00DC81
:100330008227642C02DD782C00DC7D27502C02DD26
:10034000642C00DC78273C2C02DD502C00DC732769
:10035000282C02DD3C2C00DC6E27142C02DD282C1E
:1003600000DC6927142C00DC642772480088A8424E
:1003700037DC70480078401BC4B23226C82C00DD40
:100380003227B42C02DDC82C00DC3727A02C02DD7C
:10039000B42C00DC3C278C2C02DDA02C00DC412797
:1003A000782C02DD8C2C00DC4627642C02DD782CB6
:1003B00000DC4B27502C02DD642C00DC50273C2C49
:1003C00002DD502C00DC5527282C02DD3C2C00DC03
:1003D0005A27142C02DD282C00DC5F27142C00DCAB
:1003E00064274C480078CDE90006524803882A4625
:1003F000394651A001F0B2FD3046BDE8FC812DE93F
:10040000F0475448008800F40040002841D052488A
:10041000524908604F480088C0F30D0500240DE0E4
:100420004F48015D4C4801F0CFFC00BF40214A48D5
:1004300001F038FD0128F9D1601C84B2AC42EFDB39
:10044000474800783038C6B2454840783038C7B29F
:1004500043488078303800F0FF084148C078303891
:1004600000F0FF096420704307EB870100EB4100B7
:100470003049088008EB880009EB400025490870E6
:10048000002404E0002036490855601C84B2AC42C8
:10049000F8DB00202F490880BDE8F08700F084FADF
:1004A0004FF4A06000F03EFD4FF4E13000F0FAFAA6
:1004B0004FF4165000F07FFB00F054F900F078F98B
:1004C00000F0EAF940F2DA201A49088019201149AF
:1004D000087021482149086011E02248006808B9E5
:1004E000012000E000201F490860FFF788FFFFF7A8
:1004F000AFFE0546FFF7FAFE044600F0EFF9ECE721
:1005000048000020060000200C0000200800002009
:100510000000F0410500002066664A3F00000840E8
:1005200000007A4400000E430000BE430000594022
:100530000000344000000020733D2564703D2564B8
:10054000743D256473706565643D25642C25640DD8
:100550000A00000032000020004400402800002073
:100560004C01002094812142704700BFFEE700BF8C
:10057000FEE700BFFEE700BFFEE770477047704729
:10058000704700000CB50020019000906C48006896
:1005900040F480306A49086000BF6948006800F490
:1005A000003000900198401C0190009818B9019803
:1005B000B0F5A06FF1D16248006800F4003010B1CE
:1005C0000120009001E0002000900098012843D114
:1005D0005C48006840F010005A490860084600680E
:1005E00020F0030008600846006840F00200086040
:1005F0005348406852494860084640684860084689
:10060000406840F4806048600846406820F47C10F0
:1006100048600846406840F4E810486008460068B2
:1006200040F08070086000BF4548006800F000702E
:100630000028F9D04248406820F003004049486053
:100640000846406840F00200486000BF3C484068EF
:1006500000F00C000828F9D10CBD10B5FFF792FF8F
:1006600010BD10B53648006840F0010034490860FC
:1006700008464068344908403149486008460068E7
:10068000324908402E4908600846006820F480205E
:1006900008600846406820F4FE0048604FF41F00E0
:1006A0008860FFF7DAFF4FF000602949086010BD4D
:1006B00010B5002100200022214B5B6803F00C01E3
:1006C00021B1042906D0082928D107E0214B224C6A
:1006D000236027E01F4B204C236023E0184B5B680E
:1006E00003F47010164B5B6803F48032022303EBB3
:1006F000904022B9194B4343174C23600DE0104B37
:100700005B6803F4003323B1144B4343124C236062
:1007100003E0104B4343104C236003E00D4B0E4CA1
:10072000236000BF00BF064B5B68C3F303130C4C90
:10073000E15C094B1B68CB40074C236010BD0000F7
:1007400000100240002002400000FFF8FFFFF6FE0C
:1007500008ED00E000127A001000002000093D00C2
:100760001400002008B50121482001F08DF9202057
:10077000ADF8000010208DF8030003208DF8020072
:100780006946094800F0C4FE2021074800F06DFFCB
:100790002020ADF800006946044800F0B9FE202191
:1007A000024800F062FF08BD000C01400018014043
:1007B00000B587B001214FF4017001F065F94FF4E5
:1007C000004001F0C5F80220ADF8040000208DF8CB
:1007D000070001A92E4800F09BFE2E4800F010FCF7
:1007E000002002908DF80C008DF80D004FF4602071
:1007F00004900020059001208DF8180002A92548DA
:1008000000F025FC0121234800F04DFC214800F0B8
:100810006CFC00BF1F4800F06DFC0028FAD11D4899
:1008200000F072FC00BF1B4800F073FC0028FAD1F6
:1008300007B000BD10B50446072301222146154824
:1008400000F09DFC0121134800F06DFC00BF022167
:10085000104800F0D9FD0028F9D00E4800F0F6FC51
:1008600010BD2DE9F04107460C460025002608E0A2
:100870003846FFF7DFFF0544052000F0D2F8701C72
:10088000C6B2A642F4DBB5FBF4F080B2BDE8F0815D
:10089000000801400024014008B50121C02001F0FA
:1008A000F3F85520ADF8000010208DF80300032068
:1008B0008DF802006946384800F02AFE5521364876
:1008C00000F0D5FE5520ADF800006946334800F031
:1008D0001FFE5521314800F0CAFE08BD00F001019D
:1008E00019B100212E4A116002E001212C4A116049
:1008F00000F0020121B10021294A083A116003E009
:100900000121274A083A116000F0040121B10021B9
:10091000234A103A116003E00121214A103A116084
:1009200000F0080121B100211D4A183A116003E0CE
:1009300001211B4A183A116000F0100119B1002181
:10094000184A116002E00121164A116000F02001EE
:1009500021B10021134A0832116003E00121114A3C
:100960000832116000F0400121B100210D4A10321F
:10097000116003E001210B4A1032116000F0800188
:1009800021B10021074A1832116003E00121054A14
:100990001832116070470000001C0140001801402F
:1009A000988123428001234210B56FF0040000F0CB
:1009B00008FB2E4800682E49B0FBF1F02D49087065
:1009C0000846007800EB4001C1EBC0104FF6FF7104
:1009D00001EAC0002849088010BD0146254A127866
:1009E0004A434FF0E0235A6100229A611A46126985
:1009F00042F001021A6100BF4FF0E022106900F0DE
:100A000001021AB100F48032002AF5D04FF0E02242
:100A1000126922F001024FF0E0231A6100229A616C
:100A200070470146144A12884A434FF0E0235A6146
:100A300000229A611A46126942F001021A6100BF4F
:100A40004FF0E022106900F001021AB100F4803288
:100A5000002AF5D04FF0E022126922F001024FF097
:100A6000E0231A6100229A61704700001000002004
:100A700000127A00240000202600002000BF7047EA
:100A800070B504460D46E1B2F748006801F09CF9E4
:100A900000BF8021F448006801F004FA0028F8D073
:100AA000204670BD10B586B00446012144F2040012
:100AB00000F0EAFF4FF40070ADF8140003208DF849
:100AC000160018208DF8170005A9E84800F020FD51
:100AD0004FF48060ADF8140004208DF8170005A9CC
:100AE000E24800F015FD25208DF8000003208DF868
:100AF00001008DF8020001208DF80300684600F027
:100B000016FA01940020ADF80800ADF80A00ADF81F
:100B10000C00ADF810000C20ADF80E0001A9D4486F
:100B200001F059F8012240F22551D14801F0EBF8CB
:100B30000121CF4801F0DBF806B010BD10B540F23E
:100B40002551CB4801F0C4F910B3C94801F040F970
:100B5000C4B2C848008800F40040C8B9C54800883D
:100B600000F4804060B10A2C03D00020C149088005
:100B700020E0C048008840F40040BE49088019E0E9
:100B80000D2C06D1BB48008840F48040B94908804C
:100B900010E0B8480088C0F30D00B7490C54B548C0
:100BA0000088401CB349088008460088C72801DD3A
:100BB0000020088010BD10B586B004460121052034
:100BC00000F062FF0121AD4800F06BFF0820ADF896
:100BD000140048208DF8170005A9A44800F098FCDF
:100BE0000420ADF8140003208DF8160018208DF8AD
:100BF000170005A99D4800F08BFC26208DF81000F9
:100C000002208DF811008DF8120001208DF81300DC
:100C100004A800F08CF900940020ADF80400ADF8B1
:100C20000600ADF80800ADF80C000C20ADF80A0085
:100C30006946934800F0CFFF012240F225519048C9
:100C400001F061F801218E4801F051F806B010BDA5
:100C500010B540F225518A4801F03AF910B388489E
:100C600001F0B6F8C4B28748008800F40040C8B963
:100C70008448008800F4804060B10A2C03D0002032
:100C80008049088020E07F48008840F400407D498A
:100C9000088019E00D2C06D17A48008840F4804085
:100CA0007849088010E077480088C0F30D00764945
:100CB0000C5474480088401C72490880084600881B
:100CC000C72801DD0020088010BD10B586B004469D
:100CD0000121082000F0D8FE0121880400F0E1FE87
:100CE0004FF40060ADF8140048208DF8170005A9F6
:100CF000664800F00DFC4FF48060ADF8140003204E
:100D00008DF8160018208DF8170005A95F4800F02F
:100D1000FFFB27208DF8100003208DF811008DF8BF
:100D2000120001208DF8130004A800F000F90094CF
:100D30000020ADF80400ADF80600ADF80800ADF8ED
:100D40000C000C20ADF80A006946514800F043FF42
:100D5000012240F225514E4800F0D5FF01214C48B8
:100D600000F0C5FF06B010BD10B50446214640484E
:100D700001F02AF800BF80213D4801F093F80028D7
:100D8000F9D010BD10B54021414801F098F840F26B
:100D900025513F4801F09CF840B13D4801F018F85A
:100DA000C4B2611CC8B2FFF7DFFF00BF10BD70B551
:100DB00004460D462946204601F006F800BF802172
:100DC000204601F06FF80028F9D070BD70B50646D6
:100DD0000C46002500BF615D3046FFF7E8FF6D1C43
:100DE000605D0028F7D100BF4021304601F05AF87D
:100DF0000028F9D070BD2DE9F04105460C46260AC1
:100E0000E7B23146284600F0DFFF00BF80212846C8
:100E100001F048F80028F9D03946284600F0D4FF00
:100E200000BF8021284601F03DF80028F9D0BDE838
:100E3000F08170B505460E46002403E0285DFFF7FB
:100E400093FF641CB442F9D370BD10B5044621462B
:100E50000B4800F0B9FF00BF8021094801F022F8DB
:100E60000028F9D010BD0000280000200008014033
:100E70000038014030000020840000200100020002
:100E800000440040320000204C010020000C0140D2
:100E90000048004070B505460E46002403E0285D7A
:100EA000FFF7D3FF641CB442F9D370BD10B50446FC
:100EB00021460B4800F088FF00BF8021084800F061
:100EC000F1FF0028F9D010BD70B505460E4600248C
:100ED00003E0285DFFF7EAFF641CB442F9D370BD5C
:100EE000004800400948804709480047FEE7FEE700
:100EF000FEE7FEE7FEE7FEE7FEE7FEE7FEE7FEE7CA
:100F000004480549054A064B70470000630600087F
:100F100031010008780200207808002078040020C1
:100F20007804002031490143314A1160704770B59F
:100F3000002100230F22C47804B32D4C246804F44C
:100F4000E064C4F5E064210AC1F10403CA404478B6
:100F500004FA03F18478144021430901254C0678F2
:100F6000A155047804F01F050124AC4005786D11EB
:100F7000AD0005F1E025C5F8004109E0047804F072
:100F80001F050124AC401C4D0678761145F826401B
:100F900070BD1A4A0A400243154B1B1F1A60704766
:100FA00039B1134A121D12680243114B1B1D1A60FE
:100FB00006E00F4A121D126882430D4B1B1D1A607A
:100FC0007047042808D14FF0E021096941F004017D
:100FD0004FF0E022116107E04FF0E021096921F0B4
:100FE00004014FF0E0221161704700000000FA0593
:100FF0000CED00E000E400E080E100E080FFFF1F76
:1010000010B50446FA48844208D10121401500F089
:1010100055FD0021601500F051FD17E0F5488442B0
:1010200008D10121001500F049FD0021201500F034
:1010300045FD0BE0F048844208D10121C80300F0CF
:101040003DFD00214FF4004000F038FD10BD30B5EB
:101050000246002000235068E84C20400D790C68BF
:1010600044EA0524204350609068E54C2040D1E9D3
:1010700002542C434D7944EA450420439060D06AE1
:1010800020F470000C7C641EE4B2234340EA035059
:10109000D06230BD00210160017141718160C16089
:1010A00001210174704721B1826842F0010282601F
:1010B00003E0826822F001028260704721B18268F9
:1010C00042F48072826003E0826822F4807282605F
:1010D000704710B50023CBB21AB144681C4344607A
:1010E00002E044689C43446010BD816841F00801FF
:1010F00081607047014600208A6802F008020AB148
:10110000012000E000207047816841F00401816007
:101110007047014600208A6802F004020AB10120EB
:1011200000E00020704721B1826842F4A002826092
:1011300003E0826822F4A00282607047014600202A
:101140008A6802F480020AB1012000E000207047A2
:1011500010B50A4600210023416821F46041531E66
:1011600041EA4331416010BD21B1426842F400625E
:10117000426003E0426822F4006242607047F0B5CA
:1011800004460D4600200021092D11DDE068A5F17F
:101190000A0606EB4607072606FA07F18843A5F17B
:1011A0000A0606EB460603FA06F10843E0600CE087
:1011B000206905EB4507072606FA07F1884305EB8A
:1011C000450603FA06F108432061072A0FDA606B2F
:1011D000561E06EB86071F2606FA07F18843561EA1
:1011E00006EB860605FA06F10843606322E00D2A45
:1011F0000FDA206BD61F06EB86071F2606FA07F1CB
:101200008843D61F06EB860605FA06F108432063DD
:1012100010E0E06AA2F10D0606EB86071F2606FA2B
:1012200007F18843A2F10D0606EB860605FA06F1E2
:101230000843E062F0BD21B1826842F4801282600E
:1012400003E0826822F48012826070470146C86C15
:1012500080B2704766484C300068704721B14268E0
:1012600042F48062426003E0426822F4806242609D
:10127000704721B1426842F48052426003E0426804
:1012800022F48052426070470A460021816821F4AE
:10129000E04111438160704721B1826842F400420D
:1012A000826003E0826822F400428260704721B1CC
:1012B000826842F40212826003E0826822F4021221
:1012C00082607047014600208A6802F400120AB169
:1012D000012000E000207047F0B5044615460020CC
:1012E00000220026092911DDE068A1F10A0707EBB9
:1012F000470C072707FA0CF29043A1F10A0707EB06
:10130000470703FA07F21043E0600CE0206901EBA5
:10131000410C072707FA0CF2904301EB410703FA4F
:1013200007F210432061A06BC0F30156EF1C06F1D9
:10133000010CA7EB0C0707EB870C1F2707FA0CF231
:101340009043EF1C06F1010CA7EB0C0707EB870796
:1013500001FA07F21043A063F0BD10B50A46002160
:101360000023816B21F44011531E41EA0351816334
:1013700010BD08B5002300930090009B0B44009320
:10138000009B1A6008BD08B502460020009000923C
:1013900001F12800009B184400900098006880B27A
:1013A00008BD0A4600214168164B194011434160AF
:1013B00070474162826270470A460021416821F00D
:1013C0001F0111434160704740B109490831096864
:1013D00041F40001064A0832116007E0044908316F
:1013E000096821F40001024A0832116070470000C8
:1013F0000024014000280140003C0140FFFEF0FFB6
:10140000FDF7F1FFFFFD3FFF0246002013680B4090
:101410000BB1012000E000207047CA430260704712
:1014200070B502460020002300240B125568CEB28E
:1014300005EA060415681D4015B10CB1012000E055
:10144000002070BD00220A12D343036070470000E1
:1014500010B50446CC48844208D10121042000F094
:101460002DFB0021042000F029FB46E0C748844200
:1014700008D10121082000F021FB0021082000F004
:101480001DFB3AE0C248844208D10121102000F03F
:1014900015FB0021102000F011FB2EE0BD48844216
:1014A00008D10121202000F009FB0021202000F0BC
:1014B00005FB22E0B848844208D10121402000F019
:1014C000FDFA0021402000F0F9FA16E0B34884420A
:1014D00008D10121802000F0F1FA0021802000F0E5
:1014E000EDFA0AE0AE48844207D10121801500F0F0
:1014F000E5FA0021A01500F0E1FA10BD10B50121B8
:10150000084600F0DBFA0021012000F0D7FA10BDF8
:101510002DE9F0410246002500260020002300248A
:10152000002791F803C00CF00F0591F803C00CF0F0
:10153000100CBCF1000F03D091F802C04CEA050575
:1015400091F800C0BCF1000F31D0146800202BE0EE
:101550004FF0010C0CFA00F3B1F800C00CEA0306DE
:101560009E4220D183004FF00F0C0CFA03F7BC43CE
:1015700005FA03FC4CEA040491F803C0BCF1280FFF
:1015800006D14FF0010C0CFA00FCC2F814C00AE0BE
:1015900091F803C0BCF1480F05D14FF0010C0CFAD3
:1015A00000FCC2F810C0401C0828D1D31460B1F868
:1015B00000C0BCF1FF0F34DD546800202EE000F1C4
:1015C000080C4FF0010808FA0CF3B1F800C00CEA5F
:1015D00003069E4221D183004FF00F0C0CFA03F753
:1015E000BC4305FA03FC4CEA040491F803C0BCF1C7
:1015F000280F05D100F1080C08FA0CF8C2F8148085
:1016000091F803C0BCF1480F07D100F1080C4FF06E
:10161000010808FA0CF8C2F81080401C0828CED344
:101620005460BDE8F0814FF6FF71018002218170A6
:101630000421C17070470246002093680B400BB133
:10164000012000E0002070470146886880B27047A2
:1016500002460020D3680B400BB1012000E00020BF
:1016600070470146C86880B27047016170474161A8
:1016700070470AB1016100E041617047C160704785
:101680004FF480320A43826181618261826982699A
:10169000704702460020434B18684FF6807318408D
:1016A00040EA021008433F4B186070473E49C8614A
:1016B0007047F0B50A46002300240021002500F001
:1016C0000046B6F1004F02D1364EF16901E0354EC9
:1016D0007168C0F3034583B200F44016B6F5401FAD
:1016E00008D121F070612F4E766826F070662D4F7C
:1016F0007E6012E000F48016B6F5801F06D1032646
:1017000006FA05F4A14341F0706106E0460D36018A
:1017100003FA06F6B14341F0706122B1460D36017D
:1017200003FA06F6314300F00046B6F1004F02D14D
:101730001C4EF16101E01B4E7160F0BD30B500221E
:101740008B071C0F0F2303FA04F2164B08338C107F
:1017500053F824309343134C08348D1044F825304B
:1017600023468C1053F824308C07240F00FA04F41D
:1017700023430C4C08348D1044F8253030BD0A4901
:10178000DC3108607047000000080140000C014097
:10179000001001400014014000180140001C0140ED
:1017A000002001400000014000002042DF480068A6
:1017B00040F00100DD49086008464068DC49084007
:1017C000DA49486008460068DA490840D7490860A5
:1017D0000846006820F4802008600846406820F42D
:1017E000FE0048604FF41F0088607047CF490968C9
:1017F00021F48031CD4A11601146096821F480211D
:101800001160B0F5803F03D0B0F5802F0ED106E017
:10181000C649096841F48031C44A116007E0C349F0
:10182000096841F4A021C14A116000E000BF00BF77
:10183000704710B501460022002300204A11012AFA
:1018400002D1BA4C236806E0022A02D1B74C236ABF
:1018500001E0B64C636A01F01F02012494401C4071
:101860000CB1012000E0002010BD38B50020009030
:101870000024002500BF3120FFF7DBFF054600985C
:10188000401C00900098B0F5A06F01D0002DF2D060
:101890003120FFF7CEFF08B1012400E000242046EC
:1018A00038BD01460020A14A106820F0F80040EA47
:1018B000C10010607047A0490860704702460020D0
:1018C0009A4B586820F47C1042EA01031843974B66
:1018D0005860704798490866704701460020934A4F
:1018E000506820F003000843506070478F484068FC
:1018F00000F00C007047014600208C4A506820F030
:10190000F00008435060704701460020874A506845
:1019100020F4E06008435060704701460020834A8D
:10192000506820F4605040EAC1005060704729B10F
:101930007E4A527A02437D4B5A7204E07B4A527AC5
:1019400082437A4B5A7270477B49D831086070479E
:1019500001460020754A506820F44040084350601A
:1019600070470021714A20321170704A82F82010AD
:10197000012802D004280AD104E001216B4A203258
:10198000117005E00521694A2032117000E000BFA6
:1019900000BF70476949086070476449096A01439C
:1019A000624A11627047654944390860704730B532
:1019B00000210022002400235C4D6D6805F00C011D
:1019C00021B1042905D0082923D105E05C4D05602B
:1019D00022E05B4D05601FE0544D6D6805F4701208
:1019E000524D6D6805F48034022505EB92421CB916
:1019F000544D554305600BE04C4D6D6805F40035C2
:101A00001DB1504D5543056002E04D4D55430560F5
:101A100002E04B4D056000BF00BF444D6D6805F00E
:101A2000F0010909484D6B5C0568DD4045603F4D9C
:101A30006D6805F4E061090A434D6B5C4568DD4063
:101A400085603A4D6D6805F46051C90A3E4D6B5C86
:101A50004568DD40C560354D6D6805F44041890B32
:101A60003A4D6B5CC568B5FBF3F5056130BD29B136
:101A70002E4A526902432D4B5A6104E02B4A5269A7
:101A800082432A4B5A61704729B1284A926902431E
:101A9000264B9A6104E0254A92698243234B9A615E
:101AA000704729B1214AD2690243204BDA6104E030
:101AB0001E4AD26982431D4BDA61704729B11B4A25
:101AC000D2680243194BDA6004E0184AD2688243B4
:101AD000164BDA60704729B1144A12690243134B5E
:101AE0001A6104E0114A12698243104B1A6170476F
:101AF00012494039086070470F49C86470470B4964
:101B0000C87170470948406A40F0807007494862D0
:101B1000704701460020054A92680A400AB1012038
:101B200000E00020704701498872704700100240B1
:101B30000000FFF8FFFFF6FE000042428004424230
:101B400000127A0000093D0034000020440000200B
:101B500010B50446FB48844209D101218803FFF7F0
:101B6000ADFF00214FF48040FFF7A8FF32E0F648B8
:101B7000844209D101214804FFF7ADFF00214FF451
:101B80000030FFF7A8FF25E0F048844209D1012189
:101B90008804FFF7A0FF00214FF48020FFF79BFF90
:101BA00018E0EB48844209D10121C804FFF793FFF4
:101BB00000214FF40020FFF78EFF0BE0E548844240
:101BC00008D101210805FFF786FF00214FF480109E
:101BD000FFF781FF10BD2DE9F04786B005460E46A0
:101BE0000024A24600BFA1460027B08900B100BF73
:101BF0002F462C8A4CF6FF700440F08804432C8258
:101C0000AC894EF6F3100440B088318908437189DD
:101C100008430443AC81AC8A4FF6FF400440B089CE
:101C20000443AC8201A8FFF7C2FEC648874202D136
:101C3000DDF810A001E0DDF80CA0A88900F4004058
:101C400040B10AEBCA0000EB0A1031684900B0FB52
:101C5000F1F807E00AEBCA0000EB0A1031688900CE
:101C6000B0FBF1F86420B8FBF0F004012009642116
:101C700001FB1089A88900F4004040B1322000EB3C
:101C8000C900B0FBF1F000F00700044308E0322087
:101C900000EB09106421B0FBF1F000F00F000443E9
:101CA0002C8106B0BDE8F0874FF416510160002189
:101CB0008180C18001810C21418100218181704797
:101CC00010B502460020108A4FF2FF0318400B881F
:101CD0004C8823438C882343CC88234318431082A9
:101CE00010BD0021018041808180C180704721B1F9
:101CF000828942F40052828104E082894DF6FF73AA
:101D00001A4082817047F0B5034600240026002562
:101D1000002040F66A17B94200D100BF1846C1F34F
:101D2000421401F01F06012707FA06F5012C01D124
:101D30000C3004E0022C01D1103000E014301AB154
:101D400007682F43076002E00768AF430760F0BDF4
:101D50001AB1838A0B43838202E0838A8B43838296
:101D60007047028A4FF6F0731A400282028A0A43D1
:101D70000282704782894FF2FF731A408281828902
:101D80000A438281704721B1828942F00202828136
:101D900004E082894FF6FD731A4082817047028AFF
:101DA0004FF6DF731A400282028A0A4302827047AA
:101DB00021B1028A42F48042028204E0028A4BF698
:101DC000FF731A4002827047C1F308028280704795
:101DD00001468888C0F308007047818941F00101FD
:101DE00081817047028BD2B20283028B42EA0122C8
:101DF00002837047028B02F47F420283028B0A4304
:101E00000283704721B1828A42F02002828204E07C
:101E1000828A4FF6DF731A408282704721B1828A2C
:101E200042F01002828204E0828A4FF6EF731A4079
:101E30008282704721B1828A42F00802828204E0E5
:101E4000828A4FF6F7731A408282704721B18289E5
:101E500042F40042828103E08289C2F30E02828151
:101E6000704721B1828A42F40062828204E0828A51
:101E70004FF2FF731A4082827047828A4FF6FB73DB
:101E80001A408282828A0A438282704721B1828A02
:101E900042F00202828204E0828A4FF6FD731A4009
:101EA0008282704702460020B1F5007F00D100BF5A
:101EB00013880B400BB1012000E00020704701F4B3
:101EC0000072B2F5007F00D100BFCA4302807047A4
:101ED00070B50246002400230025002040F66A1653
:101EE000B14200D100BFC1F3421501F01F0301262A
:101EF00006FA03F3012D02D19689334006E0022D44
:101F000002D1168A334001E0968A33400C12012632
:101F100006FA04F41688344013B10CB1012000E035
:101F2000002070BD10B50022002340F66A14A142C3
:101F300000D100BF0A1201249440A3B2DC43048004
:101F400010BD00000038014000440040004800403F
:101F5000004C004000500040704700000FB404499E
:101F600010B503AA029800F0DDF810BC5DF814FB70
:101F70002C0000202DE9F0410E460446002020628E
:101F80002046E168884730B3252805D0D4E90121EF
:101F90009047206A401CF2E7E16820460027884706
:101FA000050018D0A5F14100192802D820354FF4BA
:101FB00000673246294620462760FEF7F3F840B115
:101FC000012804D0F61D26F007060836D8E7361D8E
:101FD000D6E72846DAE7206ABDE8F0812DE9F0412E
:101FE0000646002410687529314616A510D0AFF3B7
:101FF0000080002802DA404213A507E031688A0712
:1020000001D512A502E0490704D511A5012401E07C
:10201000AFF3008000210A2206F1240709E0B0FB9B
:10202000F2FCB0FBF2F302FB1C003030785418468F
:10203000491C0028F3D123462A463046BDE8F0412A
:1020400000F017B8000000002D0000002B00000079
:1020500020000000704770477047704710B500F0CF
:1020600073F8006810BD10B5044600F06DF8046008
:1020700010BD2DE9F0470D4699469246044600F101
:1020800024080168880604D5E06921F01001216068
:1020900000E00120A84201DD471B00E00027A16904
:1020A0007A1902EB0900081AA0612078C00602D450
:1020B0002046AFF30080002608E0D4E901211AF899
:1020C00006009047206A401C761C20624E45F4DBD7
:1020D0002078C0060AD52046AFF3008006E0D4E998
:1020E000012130209047206A401C2062381EA7F151
:1020F0000107F4DC07E0D4E9012118F80500904756
:10210000206A401C2062281EA5F10105F3DC204650
:10211000AFF300802078000602D50220BDE8F087EA
:102120000120FBE7074B70B50D467B4400F015F826
:102130000446284600F024F810B14FF0FF3070BD7F
:10214000204670BD53E9FFFF00487047140200208D
:1021500001694A1C02610878704700B58FB0CDE96B
:1021600001310021059105497944CDE9031011465B
:102170006846FFF7FFFE0FB000BD0000E5FFFFFF60
:10218000007B00F080007047004870471402002078
:102190007546FFF7F9FFAE4605006946534620F045
:1021A0000700854618B020B5FEF7AAFEBDE820401E
:1021B0004FF000064FF000074FF000084FF0000B03
:1021C00021F00701AC46ACE8C009ACE8C009ACE8B6
:1021D000C009ACE8C0098D46704710B50446AFF39E
:1021E00000802046BDE81040FDF7EEBF2DE9F0412C
:1021F00006460F4600F0D6FA041E0D4618BF012011
:10220000284320F00040C0F17F6000F1E040C00FA3
:102210000ED0301C18BF0120384320F00040C0F120
:102220007F6000F1E040C00F04BF0120FFF71BFFFB
:1022300020462946BDE8F08121F00042A2F160521B
:10224000B2F5801F01F0004328BFD2F17F6C0BD99B
:102250005FEA001C43EAC20242EB507018BF7047AD
:1022600028BF20F001007047B2F5801FBCBF1846A0
:1022700070474FEA410C1CF5001F02D2084600F0DF
:10228000DABD70B500F03AFA00000089FFF7F6BF3A
:102290004FF00040A0F58000704700002DE9C041DC
:1022A00030B4DFF8A0C23CEA111418BF3CEA1314A2
:1022B00000F0EC8081EA03051CEA111444EAD574AD
:1022C00018BF1CEA131500F0C780A4EB05044FF0FB
:1022D000004545EAC12145EAC32341EA505143EA9A
:1022E000525304F17F74994204F500344FEAC02040
:1022F0004FEAC22208BF904200F09C804FEA13656B
:102300000FF24016765D4FEA134506FB05F7C7F15D
:10231000807706FB07F74FEAD737A7FB03687642BB
:10232000C8F58038A7FB06CE38BFA8F1010807FB27
:1023300008E64FF0000EA6FB028CE6FB03CEDCF1B4
:10234000000CCEF1004E38BFAEF1010EA6FB0C58CA
:102350004FF000074FF00005E6FB0E87A1FB08C613
:10236000A0FB07CE16EB0E0645F10005E1FB076565
:1023700015F1E04E7EBFA4F580345FEA46066D415C
:1023800016F1800745F100054FEA17274FEA066668
:1023900047EA0567A6F1DE46B6F1805F4FEA1525EC
:1023A0001FD9384624F0010C05EBC471BCF1FE6F57
:1023B00001EB0C1102D8F0BCBDE8008124425CBFE7
:1023C00001F5801E9EEAC47F02D4F0BCBDE8008106
:1023D000244238D4F0BCA1F1C041BDE8004100F076
:1023E000DBB94FEAD22242EA43524FEAD323A7FB9A
:1023F00002864FEAD02040EA415007FB03661EEAFE
:102400000E0F4FEAD12105FB026658BFA6EB00561E
:10241000B6EB00564FEA520E4EEAC37E18EB0E0E94
:1024200056EB530EBDD518EB02085E417F1C55F1EB
:102430000005B6E74FF480154FF000074FF0000697
:102440004FF00008ADE7F0BC4FF0000001F1C041D3
:1024500001F00041BDE8008111EA0C1F0CEA1315E0
:1024600000D00CE013EA0C1F00F025804FF00000B4
:10247000F0BC81EA030101F00041BDE80081F0BC3D
:10248000BDE8004181EA030100F086B9F0BCBDE877
:10249000004170B500F032F9097EFC3E00F007B84B
:1024A00081EA03014FF0000001F00041704781EA2A
:1024B000030100F071B9F0BCBDE800414FF000002D
:1024C00021497047FFFDFBF9F7F5F4F2F0EEEDEB73
:1024D000E9E8E6E4E3E1E0DEDDDBDAD8D7D5D4D322
:1024E000D1D0CFCDCCCBCAC8C7C6C5C4C2C1C0BF6E
:1024F000BEBDBCBBBAB9B8B7B6B5B4B3B2B1B0AF74
:10250000AEADACABAAA9A8A8A7A6A5A4A3A3A2A157
:10251000A09F9F9E9D9C9C9B9A9999989797969512
:1025200095949393929191908F8F8E8E8D8C8C8BAE
:102530008B8A898988888787868585848483838236
:10254000828181800000FF070000F87F4FEA11536D
:10255000A3F58063D3F11E03A8BFD3F1200C08DBE1
:102560004FF0004242EAC12252EA505232FA03F0DE
:10257000704709420BD4102BC4BF0020704703F5ED
:10258000787CBCF1FF3F05D04FF0FF3070474FF033
:102590000000704770B500F0B1F800BF4992248088
:1025A00000207047F0E70000DFF848C170B51CEA72
:1025B000111E1EBF1CEA13159EEA0C0F95EA0C0FA4
:1025C00000F06F8081EA030423EA4C134EEAD47EC4
:1025D00021EA4C1141F4801143F48013AE44A1FB75
:1025E000024CA0FB0365AEF17F7E361955EB0C055E
:1025F000A1FB034C4CF10003A0FB021C16EB0C06E4
:10260000654153F10003094218BF46F0010613F477
:10261000007F0BD14FEA03314FEA0530340341EA22
:10262000155140EA16506FF003020AE04FEAC32149
:102630004FEAC520F40241EA555140EA56506FF086
:10264000020202EB2E4201EB025585EACE710AD05E
:102650005FEA440C18BF24F0004450F1000041F13F
:10266000000120EAD47040F2FE7C624500D270BDC9
:10267000A84214BF4FF080444FF04044002E08BFE2
:102680000024BEF1806FA8BFA1F1C041BDE8704039
:1026900080F282804FF0000001F1C04101F0004162
:1026A00070479EEA0C0F0CEA131518BF95EA0C0F41
:1026B00006D04FF0000081EA030E0EF0004170BD1D
:1026C00000F01CF88900013E00F007B800F009B8DE
:1026D0004FEA430C5FEA5C5C08D081EA030100F03A
:1026E0005BB84FEA410C5FEA5C5CF6D14FF000004A
:1026F000014970470000FF070000F87F0EF1020E4D
:102700002EF0030E5EF8046B364205D4012A43EB2B
:10271000030515F5001F12D8012841EB010C1CF52B
:10272000001F0CD80ED14FEAD17C15F5001F0CEB21
:102730004C0C0CF1020C08BF4CEBD37C04E04FF0C6
:10274000080C01E04FEAD37C0CEB4C0526FA05F6A9
:1027500006F00706B6F1040C06D20EEB860CBDE8B7
:1027600070404CF0010C6047DFE80CF0090B0202EE
:102770004FF000414FF00000A1F5002170BD194657
:102780001046012851EB010418BFD4F5001484BF92
:10279000002001F0004170BD0808A0F500114FEACB
:1027A000310170472DE9F04101F5801CBCF5001F97
:1027B000C0F2C3804FEA115C21EA0C510CF1FD0C10
:1027C00041F480115FEA5C0C0CF5C07C01D3400041
:1027D00049413DA4890241EA905187028E0E0A0CBC
:1027E000A45D04FB04F602FB06F6C6F14046A4FB1A
:1027F0000662F60D46EA422606FB06F4A4FB012318
:102800005242C3F1404338BF5B1EA6FB0242002484
:10281000E6FB0324D20B42EA4446A6FB0623A1FBB7
:1028200002E2A3FB07E4A4184FF0000252F10002F9
:10283000E3FB01426442C2F1404E38BFAEF1010EEB
:10284000A6FB04234FF00002E6FB0E32A2FB034678
:102850004FF00004B61954F10004E2FB0264A1FB3E
:1028600006E6A4FB07E816EB08064FF0000858F14F
:102870000008E4FB01687642C8F1405838BFA8F16F
:102880000108A2FB06E4A3FB08E52D194FF00004A4
:1028900054F10004E2FB0854A1FB05E6A7FB04E8A1
:1028A00018EB06084FF0000656F10006E1FB04861F
:1028B00018F1200556F10006A809A8F11B08B10976
:1028C00008F03F08B8F10A0F40EA86601CD901EB16
:1028D0000C51BDE8F08100BFFCF5EEE8E2DDD8D395
:1028E000CFCBC7C3C0BDB9B6B4B1AEACA9A7A5A381
:1028F000A19F9D9B9A9896959392908F8D8C8B8992
:102900008887868584838281A0FB006800FB01F2B2
:1029100008EB4208B8EB872807D5341858EB0104B8
:10292000D5D5401C51F10001D1E7341A78EB0104F0
:10293000CDD4401E71F10001C9E75FEA4C0C5FEA9B
:102940009C5C0DD105D34FF0000001F00041BDE8C3
:10295000F081BDE8F04170B5FFF7D0FE6DDBFFBE42
:10296000BDE8F0414FF00000004970470000F87FDB
:1029700043004FEAD30C4FEA3C0C43401FBF4007D3
:102980000CF1605113F0FE4F70471CF0006F03D143
:1029900000200CF0004170470CF0004343EA5070F7
:1029A00010B540EACC0000F000FA00BF0000009231
:1029B0004FEA0001FFF7F0BE4FF000414FF000007A
:1029C000A1F500217047000090EA010F48BF81F097
:1029D000004100F13C82421A3CBF801A89184FEA3C
:1029E000D0524FF07F4C1CEA410FA2EBD15318BFDD
:1029F0009CEA026F00F03B804FF0004C4CEA002054
:102A00004CEA012121FA03FC10EB0C0C1ED202F15E
:102A1000FF325FEA1C2040EBC25038BF70471CF009
:102A20007F0F4FEA400C18BFBCF17F4F38BF704793
:102A3000C3F12003994008BF20F00100BCF17F4F93
:102A400038BF7047A0F1C04000F0F5B94FEA3C0034
:102A5000000A40EBC25028BF1CF0FF0F4FEA400CA9
:102A6000E6D018BFBCF17F4F38BF7047EAE79CEA59
:102A7000026F05D010EA5C0F08BF00F000407047FD
:102A800010B500F092F900BF64FBBE3E4FF47F0C1E
:102A90001CEAD0121EBF1CEAD11392EA0C0F93EA73
:102AA0000C0F00F0858090EA010F48BF42F480725D
:102AB00040F4000C41F400002CF07F4120F07F40F6
:102AC00000B58142A2EB03020FF2081CACEB504EA2
:102AD000C0F100009EF800E04FEA4E0E00FB0EFC35
:102AE00038BF49004FEA2C1C02F5FA020CFB0EF32A
:102AF0004FEACE1E4FEA112C4FEAC1210EEB635E66
:102B000042EB22420EFB0CFC4FEA1C5300FB03116C
:102B10004FEA112C4FEA01310EFB0CFC4FEADC4C62
:102B200000FB0C11C14228BF09184CEB03335DF8C0
:102B300004EB10EB410143EBC250B2F57C0F38BF00
:102B4000704729D512F0F00F1CBF00F1C04000F013
:102B500000407047008182838485868788898B8CBA
:102B60008D8E8F919293959697999A9C9D9FA0A2F6
:102B7000A3A5A7A8AAACAEB0B2B3B5B7B9BCBEC046
:102B8000C2C5C7C9CCCED1D4D7D9DCDFE2E6E9ECE7
:102B9000F0F3F7FAFE0000004FEA400C0CF1807CE5
:102BA000BCF17E4F28BF7047B0F1C04000F043B980
:102BB00090EA010F0CEAD11348BF42F480726245DB
:102BC00038BF634507D213F47F0F16D080EA0100A7
:102BD00000F00040704710B500F0E7F8097EFC3EB9
:102BE00000F005B880EA010000F00040704780EA7C
:102BF000010000F0004000F01EB912F47F0F04BF86
:102C00000248704780EA010000F015B90000C07F5B
:102C1000C10DD1F19E0206DB4FEA002343F00043D1
:102C200023FA02F07047004207D54FEA4001B1F1A4
:102C3000FE4F02D24FF00000704710B500F0B5F81B
:102C400049922480002070476FEA200070470000FE
:102C500010F0004148BF4042B0FA80F310FA03F28E
:102C6000C3F19D030BD051EAC35101EB122053066F
:102C700038BF704700F1010008BF20F00100704725
:102C8000B0FA80F310FA03F2C3F19D030AD0D9051C
:102C900001EB1220530638BF704700F1010008BF56
:102CA00020F00100704700004FF47F0C1CEAD012A6
:102CB0001EBF1CEAD11392EA0C0F93EA0C0F00F02E
:102CC000478090EA010F48BF42F480724FF0004CF9
:102CD0004CEA00204CEA012102EB0302A0FB0113A5
:102CE000A2F50002002918BF43F001035B0028BFD2
:102CF0004FEA330342EB22425FEA132C4CEBC25003
:102D00002EBFBCEB436FB2F57C0F70474FEA036CEC
:102D1000BCF1004F08BF20F00100B2F57C0F38BFB6
:102D200070470BD582F0FF0212F5803FC8BF704795
:102D300000F1C040D8BF00F00040704700F5000C23
:102D40005FEA4C0C48BF7047B0F1C04000F073B868
:102D500090EA010F0CEAD11348BF42F48072624539
:102D600038BF634504D280EA010000F0004070479C
:102D700010B500F01AF800BF8900013E00F007B856
:102D800000F009B85FEA410C5FEA1C6C08D080EAE9
:102D9000010000F050B85FEA400C5FEA1C6CF6D10D
:102DA0004FF00040A0F5800070470EF1020E2EF0AB
:102DB000030E5EF8044B244204D44FEA4102B2F100
:102DC0007F4F11D84FEA4003B3F17F4F0CD80ED19B
:102DD0004FEAD07CB2F17F4F0CEB4C0C0CF1020CA3
:102DE00008BF4CEBD17C04E04FF0080C01E04FEA47
:102DF000D17C0CEB4C0324FA03F404F00704B4F187
:102E0000040C06D20EEB840CBDE810404CF0010C13
:102E10006047DFE80CF0070802024FF00040A0F521
:102E2000800010BD0846420018BFD2F1807288BFF2
:102E300000F0004010BDFF2141EAD050C0057047AE
:102E400090EA010F48BF81F000413FF5C4AD421A3E
:102E500004D882F00042A0EB020011444FEAD052A5
:102E60004FF07F4C1CEA410FA2EBD15318BF9CEAF4
:102E7000026F4AD04FF0004C4CEA00204CEA01218E
:102E800021FA03FCB0EB0C0C0FD412F0FE0F36D07D
:102E90005FEA4C001DD5001240EBC25038BF7047AE
:102EA0001CF03F0F18BF70470BE0A2F101025FEA70
:102EB0001C2040EBC25038BF70471CF07F0F18BF7A
:102EC0007047C3F12003994014BF401E20F0010059
:102ED000704780084FEA122308BF7047B0FA80FCA1
:102EE000A2EB0C02CCF1280C60FA0CF093EA122F42
:102EF00004BF00EBC25070474FEAC3707047130A1B
:102F00005FEADC1008BF7047F6E79CEA026F04D066
:102F100010EA5C0F08BF0020704710B5FFF745FFAF
:102F200040DFF63E81F00040704700004C2F000863
:102F300000000020480000006C010008942F0008E9
:102F40004800002030080000880100080000000050
:102F500000000000000000000000000000A24A0481
:102F60000000000000000000010203040607080939
:102F700000000000003801400000000000000000D8
:102F8000000000000102030401020304060708090F
:042F90000204060829
:0400000508000131BD
:00000001FF
